:020000040800F2
:1000000010070020B5010008A11A0008F518000823
:100010009D1A000815030008C11A0008000000001E
:10002000000000000000000000000000A91A000805
:100030001903000800000000A51A0008AD1A000806
:10004000CF010008CF010008CF010008CF01000850
:10005000CF010008CF0100081D0300082503000898
:100060002D030008350300083D030008CF010008F8
:10007000CF010008CF010008CF010008CF01000820
:10008000CF010008CF010008CF010008CF01000810
:10009000CF010008CF010008CF0100084503000888
:1000A000CF010008CF010008CF010008CF010008F0
:1000B000CF010008B51A000800000000CF010008B9
:1000C000CF0100080000000000000000CF01000880
:1000D00000000000CF010008CF0100080000000070
:1000E000CF010008CF010008CF01000800F002F89E
:1000F00000F050F814A696E8000CB244B344DA4578
:1001000001D100F047F8BAE80F000FA696E83000DA
:10011000A5EB040504EB0607AAEB0704A7F101070A
:100120004FEA15154FEA3414A4F10104AC4201D38F
:1001300000F030F813F0010F18BFFB1A43F0010371
:1001400000F001F8DBE71847F81B0000181C00005E
:10015000103A24BF78C878C1FAD8520724BF30C8F3
:1001600030C144BF04680C60704700007047000055
:100170000023002400250026103A28BF78C1FBD8B0
:10018000520728BF30C148BF0B6070471FB51FBD65
:1001900010B510BD00F084F81146FFF7F7FF01F02D
:1001A00091FC00F0A2F803B4FFF7F2FF03BC00F0EB
:1001B000A9F800000948804709480047FEE7FEE724
:1001C000FEE7FEE7FEE7FEE7FEE7FEE7FEE7FEE707
:1001D00004480549054A064B70470000B11A00085B
:1001E000ED0000081001002010070020100300207F
:1001F0001003002040EA010310B59B070FD1042A29
:100200000DD310C808C9121F9C42F8D020BA19BAE1
:10021000884201D9012010BD4FF0FF3010BD1AB146
:10022000D30703D0521C07E0002010BD10F8013B9B
:1002300011F8014B1B1B07D110F8013B11F8014BC2
:100240001B1B01D1921EF1D1184610BD4FF00002C8
:1002500000B5134694469646203922BFA0E80C50BC
:10026000A0E80C50B1F12001BFF4F7AF090728BF97
:10027000A0E80C5048BF0CC05DF804EB890028BF13
:1002800040F8042B08BF704748BF20F8022B11F03C
:10029000804F18BF00F8012B7047704770477047B8
:1002A000754600F02BF8AE4605006946534620F02F
:1002B0000700854618B020B5FFF78AFFBDE820404B
:1002C0004FF000064FF000074FF000084FF0000B12
:1002D000AC46ACE8C009ACE8C009ACE8C009ACE881
:1002E000C00921F007018D46704710B50446AFF3F1
:1002F00000802046BDE81040FFF755BF004870471A
:100300001800002001491820ABBEFEE726000200BD
:1003100070470000FEE7000070470000012000F079
:100320000DB90000022000F009B90000042000F01F
:1003300005B90000082000F001B90000102000F00D
:10034000FDB8000080B5202000F0F8F84020BDE89E
:10035000804000F0F3B80000EFF3108072B600BFE9
:10036000FEE70000B0B501383F2888BFB0BDDFE828
:1003700010F041004700E300AF00E300E300E300BA
:100380007100E300E300E300E300E300E300E300C7
:100390008100E300E300E300E300E300E300E300A7
:1003A000E300E300E300E300E300E300E300E30035
:1003B0009500E300E300E300E300E300E300E30073
:1003C000E300E300E300E300E300E300E300E30015
:1003D000E300E300E300E300E300E300E300E30005
:1003E000E300E300E300E300E300E300E300E300F5
:1003F000A50000BF40F20004C2F20004432004E064
:1004000040F20004C2F200044120207040F2780063
:10041000C2F2000000F040FE20790138C0B203288B
:1004200000F2848041F62E51C0F6000141F63652AA
:1004300041F2000531F81010C0F60002C4F20105C7
:1004400032F810402846002200F08CF92846214658
:1004500069E000BF40F20001C2F200014888322882
:1004600024BF3238488040F27801C2F200010A68A5
:1004700080B20FE040F20001C2F20001488840F271
:10048000E63290429CBF3230488040F27801C2F29E
:1004900000010A68D062C86048E000BF41F2000471
:1004A000C4F20104A4F58060202100F055F978B968
:1004B00040F20005C2F20005432016E041F20004BC
:1004C000C4F20104A4F58060402100F045F938B180
:1004D00040F27800C2F20000BDE8B04000F006BE75
:1004E00040F20005C2F200054120287040F2780079
:1004F000C2F2000000F0D0FD28790138C0B2032814
:1005000014D841F62E51C0F6000141F6365231F8AA
:100510001010C0F6000232F810502046002200F001
:1005200021F920462946012200F01CF940F204106E
:10053000C2F2000001210170B0BD000040F2144180
:10054000C4F201010A68024214BF08607047FFF755
:1005500009BF00002DE9F04F82B00E68002E00F0B8
:10056000F78040F20C4C40F2004E41F20002C4F21F
:10057000010CC4F2010EC4F201020327002401237E
:100580004FF0000B4FF00009904208BF0227009780
:1005900049E000BF40F60042C4F20102009F9042D1
:1005A00008BF012704F00C030F229A402AEA020236
:1005B00007FA03F34FEA9B051A4346F825204E68D5
:1005C000F203DEF8002054BF22EA080242EA0802E1
:1005D000CEF80020DEF80420B30354BF22EA08025C
:1005E00042EA0802CEF80420F302DEF8082054BFE5
:1005F00022EA080242EA0802B302CEF80820DCF838
:1006000000204FF0010354BF22EA080242EA080228
:10061000CCF800200E680BF1010B36FA0BF204F156
:10062000040400F0958003FA0BFA16EA0A08F1D0E8
:100630004E684FF6FF72C1F21002964212DC122E83
:1006400056D8DFE806F0350B4549555555555555F3
:10065000555555555555554D510000BFD1F80C9085
:1006600046E000BF4FF6FF72C1F2210296420FDC56
:100670000022C1F2110296421AD00022C1F21202E7
:10068000964215D00022C1F22102964210D02FE0EE
:100690000022C1F2220296420AD00022C1F23102A7
:1006A000964205D00022C1F23202964220D100BF0C
:1006B0008A684AB1012A14BFC0F814A0C0F810A07B
:1006C0004FF0080914E000BF4FF0040910E000BF2C
:1006D000CA6802F108090BE04FF0000908E000BF0A
:1006E000CA6802F1040903E0CA6802F10C0900BFFC
:1006F00022460646B8F5807F24BF203A0436376884
:100700000F25954027EA050509FA02F22A433260CF
:10071000CA79D2067FF57EAF41F21803C4F2020314
:100720001A68AEF57E7642F001021A601A6802F08D
:1007300001020192019A2BF0030256F802A040F642
:100740000002C4F2010290427FF424AF002729E79F
:1007500002B0BDE8F08F00008068084018BF01209B
:1007600070470000002A08BF0904016170470000BB
:1007700040F20810C2F200000068704740F2080022
:1007800040F20811C2F20000C2F2000100780A68CB
:10079000104408607047000080B542F20000C4F2C7
:1007A0000200016841F010010160032000F08CF8A4
:1007B0000F2000F005F800F027F8002080BD0000B1
:1007C00070B540F20806C2F2000640F2100132781D
:1007D000C2F200014FF47A730968B3FBF2F20446E7
:1007E000B1FBF2F1084600F089FB0F2C4FF0010538
:1007F00008D838B94FF0FF3021460022002500F01C
:1008000037F87460284670BD82B041F21800C4F217
:1008100002000168042241F001010160016801F059
:10082000010101910199416841F0805141604068A6
:1008300000F08050009000980420C4F2010001688C
:1008400062F31A61016002B070470000002848BFDF
:10085000704700F01F01012202FA01F11C2202EA96
:10086000D0004EF20012CEF200028150704700001C
:1008700010B54EF60C5CCEF2000CDCF80030C3F381
:10088000022E8EF00704042C28BF0424BEF10303BB
:100890004FF0FF3E0EFA04F438BF0023A143994005
:1008A0000EFA03F39A43114300F00F0200F1604384
:1008B0000901043A03F564436244002848BF02F189
:1008C0000C03197010BD00004EF60C51CEF2000161
:1008D0000A684FF6FF031A4060F30A2242F0806074
:1008E00040F0FD7008607047002804BF0120704789
:1008F0002DE9F04381B042F20008C4F20208044638
:10090000D8F800000D4600F0070088420CD2D8F855
:10091000000020F007002843C8F80000D8F80000C5
:1009200000F00700A8426CD1206841F20409810759
:10093000C4F2020917D5410705D5D9F8001041F4D2
:10094000E061C9F80010010705D5D9F8001041F49D
:100950006051C9F80010D9F80010A26821F0F00128
:100960001143C9F80010C00742D1D8F8000000F0C8
:100970000700A8420CD9D8F8000020F0070028434F
:10098000C8F80000D8F8000000F00700A84238D1ED
:100990002068410707D5D9F80010E26821F4E0612A
:1009A0001143C9F80010000708D5D9F800002169E3
:1009B00020F4605040EAC100C9F80000D9F80020D6
:1009C00002F00C00082841F20020C0F27A0051D158
:1009D00041F61E53C2F38341C0F60003595CD203B3
:1009E0003CD440F60010C0F23D00484342E000BF56
:1009F000606802280AD001282AD159F8041C89030A
:100A000008D4012001B0BDE8F08300BF59F8041CF0
:100A10008901F6D5D9F8001021F003010843C9F87F
:100A20000000FFF7A5FE064641F28837D9F800001E
:100A3000616800F00C00B0EB810F96D0FFF798FED4
:100A4000801BB842F2D9032001B0BDE8F08300BF9B
:100A500059F8041C8907D4D5DCE700BFD9F8002079
:100A600041F60453C2F34042C0F600039A5C484387
:100A7000B0FBF2F0D9F8001041F60652C1F30311B1
:100A8000C0F60002515C40F2100220FA01F140F27F
:100A90000C00C2F200000068C2F200021160FFF711
:100AA0008FFE002001B0BDE8F083000040F210008E
:100AB00041F20401C2F20000C4F2020100680968B8
:100AC00041F61652C1F30221C0F60002515CC84043
:100AD0007047000040F2100041F20401C2F2000031
:100AE000C4F202010068096841F61652C1F3C2213E
:100AF000C0F60002515CC84070470000002804BFE7
:100B0000012070472DE9F04182B00446007841F29F
:100B10000006C007C4F202060CD0706800F00C009A
:100B2000042840F081803068800303D56068002885
:100B300000F04E81207880071BD5706810F00C0FF4
:100B400009D0706800F00C00082840F08B807068B5
:100B5000C00300F187803068800703D52069012831
:100B600040F036813068616920F0F80040EAC10049
:100B700030602078000713D4207840072CD4E56932
:100B8000002D00F02081706800F00C00082840F073
:100B9000AF80012D40F00C81012002B0BDE8F08152
:100BA000A069002800F08C800020C4F242200121BE
:100BB000C0F88014FFF7DCFD054600BF706A8007AF
:100BC00000F1BA80FFF7D4FD401B0228F6D90320BC
:100BD00002B0BDE8F08100BFF0695FEAC00808D448
:100BE000F06940F08050F061F06900F080500090B2
:100BF000009847F20007C4F200073868C0054DD4DA
:100C0000386840F480703860FFF7B2FD054600BFD9
:100C10003868C00542D4FFF7ABFD401B6428F7D904
:100C2000032002B0BDE8F081706800F00C000828D5
:100C300003D17068C0033FF576AF6068002800F00C
:100C40000981B0F5A02F00F01D81B0F5803F00F0C4
:100C50001D81306820F480303060306820F48020BE
:100C600017E100BF2069002840F20000C4F24220D2
:100C700000F08C8001210160FFF77AFD054600BF7E
:100C8000306880073FF56EAFFFF772FD401B02280A
:100C9000F6D9032002B0BDE8F08100BFE06800286B
:100CA00000F09A80052800F0B180012800F0B280A1
:100CB000306A20F001003062306A20F00400ACE0BD
:100CC0000020C4F242200021C0F88014FFF750FD3C
:100CD000054600BF706A80077FF54EAFFFF748FDFD
:100CE000401B0228F6D9032002B0BDE8F08100BF06
:100CF0000027C4F2422700203866FFF739FD022D95
:100D000005460DD13068800140F1D680FFF730FDF7
:100D1000401B02284FF00300F4D902B0BDE8F08177
:100D2000306880014FD5FFF723FD401B02284FF0AC
:100D30000300F5D9F1E700BF40F21000C2F2000055
:100D4000006844F6D351C1F26201A0FB0101480AD8
:100D5000019000BF00BF0198411E002801913FF49F
:100D60000BAF00BF0198411E002801913FF404AF72
:100D700000BF0198411E002801913FF4FDAE00BF65
:100D80000198411E00280191E4D1F5E6002101609F
:100D9000FFF7EEFC054600BF306880077FF5E9AE3F
:100DA000FFF7E6FC401B02284FF00300F4D9B4E73C
:100DB0007068216A00F480328A4209D1616A00F4C5
:100DC0007010884204D1002002B0BDE8F08100BF5D
:100DD000012002B0BDE8F081306A20F001003062ED
:100DE000306A20F004003062FFF7C2FC054641F291
:100DF000883700BF306A800722D5FFF7B9FC401B57
:100E0000B8424FF00300F5D987E700BF306A40F0E1
:100E100004003062306A40F001003062FFF7A8FC45
:100E2000054641F2883700BF306A800708D4FFF7D3
:100E30009FFC401BB842F7D9032002B0BDE8F08107
:100E4000B8F1000F3FF59BAEF06920F08050F061E3
:100E500095E600BF306820F480303060306820F4C0
:100E600080203060FFF784FC054600BF30688003B7
:100E70007FF560AEFFF77CFC401B64284FF0030059
:100E8000F4D94AE7306840F480203060306840F49C
:100E900080303060FFF76CFC054600BF306880038F
:100EA0003FF548AEFFF764FC401B6428F6D90320E9
:100EB00002B0BDE8F08100BF206AB0F5803F05D1E7
:100EC0007168A26821F40031114371607168626A2F
:100ED00021F4741111430843706001203866FFF754
:100EE00047FC0446306880013FF56DAFFFF740FCDA
:100EF000001B02284FF00300F4D90EE7411E00202A
:100F0000B0EB116F1CBF012070474EF21002CEF201
:100F1000000251604EF62351CEF20001F0230B7017
:100F20000721906011607047704700007047000013
:100F300090F83C20012A4FF0020228D010B580F82A
:100F40003D200268D2F804E0D2F808C00C682EF008
:100F500070032343B2F1804F53600BD042F600433D
:100F6000C4F201039A4205D040F20043C4F20003E8
:100F70009A4204D149682CF0800319439160012101
:100F8000002280F83D1080F83C20BDE8104010465B
:100F900070470000002804BF0120704710B50446C8
:100FA00090F83D0028B9002084F83C00204600F06D
:100FB00051F8022084F83D00206842F6004C026897
:100FC000B0F1804FC4F2010C18BF604504D1A36892
:100FD00022F070021A4305E040F20043C4F200031D
:100FE0009842F4D0B0F1804F18BF604504D1236916
:100FF00022F440721A4305E040F20043C4F20003B9
:101000009842F4D0A16922F08002D4F804E0E368A9
:10101000114360450160C362C0F828E002D16169F4
:10102000CCF8301001214161002084F8461084F88A
:101030003E1084F83F1084F8401084F8411084F882
:10104000421084F8431084F8441084F8451084F862
:101050003D1010BD006840F20041C4F2000188421A
:1010600018BF704780B582B041F21C00C4F2020084
:101070000168002241F0020101600068002100F0D7
:101080000200019001981D20FFF7F2FB1D2002B025
:10109000BDE88040FFF7DABB90F83D1001291CBF86
:1010A00001207047022180F83D100068C168B0F14E
:1010B000804F41F00101C1600BD042F60041C4F203
:1010C0000101884205D040F20041C4F2000188428B
:1010D00006D1816801F00701062904BF002070478E
:1010E000016841F00101016000207047014600687D
:1010F00041F21113026A1A4204D00122002081F841
:101100003D207047026A40F244431A42F5D102681A
:1011100022F0010202600122002081F83D20704788
:1011200090F83C20012A4FF0020200F0C28080B506
:1011300080F83D20D0F800C04FF67772DCF8083018
:1011400023EA0202CCF808200B683F2B1CDD5F2B42
:1011500020DD602B50D0B3F5005F6DD0702B40F0D8
:10116000A080D1E901E3C968DCF8082043EA0E0356
:1011700022F47F4243EA01211143CCF80810DCF845
:10118000081041F077018AE01F2B29DC63B3102B94
:101190002AD086E0402B63D0502B40F08280D1F8DB
:1011A00004E0C968DCF82030DCF8202022F00102DD
:1011B000CCF82020DCF8182022F0F00242EA0111DD
:1011C00023F00A0242EA0E02CCF81810CCF82020D4
:1011D000DCF8081041F0570121F020015FE000BF6A
:1011E000202B01D0302B5CD1DCF8081021F07001ED
:1011F000194341F0070152E0D1F804E0C968DCF876
:10120000203023F01003CCF82030DCF81830DCF864
:10121000202023F4704322F0A00243EA013142EA85
:101220000E12CCF81810CCF82020DCF8081041F091
:10123000670121F0100132E0D1E901E3C968DCF86F
:10124000082043EA0E0322F47F4243EA01211143BE
:10125000CCF80810DCF8081041F480411FE000BF12
:10126000D1F804E0C968DCF82030DCF8202022F056
:101270000102CCF82020DCF8182022F0F00242EA2B
:10128000011123F00A0242EA0E02CCF81810CCF841
:101290002020DCF8081041F0470121F03001CCF8A3
:1012A00008100121002280F83D1080F83C20BDE8A4
:1012B00080401046704700007047000010B501687C
:1012C00004460869800744BFC8685FEA807039D463
:1012D0000869400744BFC8685FEA40703ED40869A7
:1012E000000744BFC8685FEA007045D40869C006BB
:1012F00044BFC8685FEAC0604AD40869C0071CBF21
:10130000C8685FEAC07051D10869000644BFC86868
:101310005FEA006052D40869400644BFC8685FEACB
:10132000406053D40869800646BFC8685FEA8060A1
:1013300010BD6FF0200220460A61BDE81040FFF7A3
:10134000F5BD00BF6FF002000861012020778869B9
:10135000800743D02046FFF7AFFF45E06FF0040061
:10136000086102202077886910F4407F40D0204631
:10137000FFF7A2FF42E000BF6FF008000861042001
:101380002077C86980073DD02046FFF795FF3FE0F2
:101390006FF01000086108202077C86910F4407FC2
:1013A0003AD02046FFF788FF3CE000BF6FF0010015
:1013B0000861204600F03EF82168A5E76FF0800044
:1013C00008612046FFF7B0FD2168A4E76FF04000F8
:1013D0000861204600F072F82168A3E7204600F07B
:1013E00025F8204600F024F82168002020776FE7D8
:1013F000204600F01BF8204600F01AF82168002073
:1014000020776CE7204600F011F8204600F010F835
:1014100021680020207769E7204600F007F8204681
:1014200000F006F821680020207766E7704700008A
:101430007047000040F27801C2F20001884201D0FA
:10144000704700BF40F20000C2F20000017841295D
:101450002AD04329F4D141684A1C0329C8BF01227C
:10146000511ECBB2042B426028BF7047B0B5C8B242
:1014700041F62E51C0F6000141F6365241F2000508
:10148000C0F6000231F81010C4F2010532F8104025
:1014900028460022FFF766F9284621460122BDE8CA
:1014A000B040FFF75FB900BF41684A1EB8BF0422D1
:1014B000511ECBB2032B4260C2D8D7E77047000061
:1014C000002804BF0120704710B5044690F83D0085
:1014D00028B9002084F83C00204600F061F8242060
:1014E00084F83D002068D4E90212C36823F4005355
:1014F000C360036923F440531A430261D4E904230F
:101500001143C268194341F20C639A431143C1600D
:101510004169A26921F44071114343F60002C4F20B
:1015200001029042416103D0FFF7C0FA02E000BF20
:10153000FFF7D0FAD4E90023192148439900B0FB02
:10154000F1F048F21F5CC5F2EB1CA0FB0C314FF62A
:101550009C734909C0F6FF7301FB0300322303EBC0
:101560000010A0FB0C03F02000EA531000EB011068
:10157000C3F34311084490601069202120F4904087
:101580001061506920F02A005061D06840F400508A
:10159000D0600020206484F83D1084F83E1010BD17
:1015A00070B586B040F60004C4F20104006804F58A
:1015B000405100268842049602D006B070BD00BF9C
:1015C00041F21800C4F20200016802AD41F480410A
:1015D0000160016801F4804101910199016841F0C5
:1015E000040101600068294600F0040001900198A0
:1015F0004FF40070029002200390032005902046D3
:10160000FEF7A8FF4FF48060CDE902062046294688
:101610000496FEF79FFF06B070BD00002DE9F04371
:1016200081B0044690F83E0020280DD10E460029D6
:101630004FF0010000F088801746002A00F08480F7
:1016400094F83C00012803D1022001B0BDE8F083EA
:10165000012084F83C00002022211D46206484F8EB
:101660003E102063FFF784F8A785E785A168074649
:10167000B1F5805F01D1206910B1B046002601E0CC
:101680004FF00008002084F83C00E08D002857D07F
:1016900005F101090DE000BF40684FF000086FF34D
:1016A0005F2026F8020BE08D0138E085E08D0028F0
:1016B00046D02068016889060ED4B9F1000F19D010
:1016C00055B300BFFFF754F8C11B2068A94223D8C7
:1016D00001688906F6D500BFB8F1000FDCD0A1681B
:1016E000B1F5805F14D009B9216989B1406800F073
:1016F0007F000EE001688906EED4016889065CBFB0
:1017000001685FEA8161E7D401688906F2D5E3E701
:10171000406808F8010BC6E7C16821F4D071C160C8
:10172000416921F001014161202084F83D0084F8E5
:101730003E00002084F83C00032001B0BDE8F083A7
:10174000202084F83E00002001B0BDE8F0830000B6
:101750002DE9F041044690F83D0020280ED10D46B9
:1017600000294FF0010000F08E801646002A08BFC5
:10177000BDE8F08194F83C00012803D10220BDE8C7
:10178000F08100BF012084F83C000020206421206B
:10179000984684F83D00FEF7EBFFA684E684A16836
:1017A0000646B1F5805F03D12069002800F0A080D3
:1017B0002F460025002084F83C00E08CE0B118F1B1
:1017C00001001BD0B8F1000F60D120680BE000BF12
:1017D00035F8021B00276FF35F214160E18C01396E
:1017E000E184E18C51B3016809066DD5002FEFD07B
:1017F00017F8011BF1E700BF20681FE0206802E036
:101800000168090609D40168090606D401680906B9
:101810005CBF01685FEA0161F2D51FB117F8011BD7
:1018200005E000BF35F8021B00276FF35F21416020
:10183000E18C0139E184E18C0029E4D10168490699
:101840001DD4B8F1000F3FD018F101010ED101688D
:10185000490614D4016849065CBF01685FEA41612A
:101860000DD401684906F2D509E000BFFEF780FFFC
:10187000811B2068414527D800684006F6D5202006
:1018800084F83D000020BDE8F08100BF206800BF63
:101890000168090606D4FEF76BFF811B20684145ED
:1018A000F6D911E017B117F8011B04E035F8021B57
:1018B00000276FF35F214160E18C0139E184E18C05
:1018C0000029E5D1BAE700BFC16821F4D071C16039
:1018D000416921F001014161202084F83D0084F834
:1018E0003E00002084F83C000320BDE8F08100BFEA
:1018F00000275FE7FEE70000F0B585B0002641F263
:1019000018000496C4F20200016841F2000441F09C
:10191000080101600168C4F2010401F008010091AE
:1019200000990168002241F01001016001684FF444
:10193000707701F0100100910099016841F00401F5
:10194000016000684FF4707100F00400009000988E
:101950002046FEF707FF7F2001900020C1F2110012
:1019600001ADCDE90206A4F580602946FEF7F2FD3F
:101970001120CDE902060220049020462946019755
:10198000FEF7E8FD062000210022FEF771FF062089
:10199000FEF75CFF072000210022FEF769FF072009
:1019A000FEF754FF082000210022FEF761FF082007
:1019B000FEF74CFF092000210022FEF759FF092005
:1019C000FEF744FF0A2000210022FEF751FF0A2003
:1019D000FEF73CFF172000210022FEF749FF1720E9
:1019E000FEF734FF05B0F0BD80B586B040F2780058
:1019F00040F200420021C2F20000C4F2000241F6AF
:101A00003F7340F2E73C0591CDE90311CDE90011A8
:101A1000C0E90023C0E9021C01618161FFF7BAFA45
:101A2000002818BFFEF798FC4FF48050029040F257
:101A30007800C2F2000002A9FFF772FB002818BF6D
:101A4000FEF78AFC40F27800C2F200006946FFF718
:101A50006FFA002818BFFEF77FFC06B080BD0000BB
:101A600080B540F2C00043F60001C2F20000C4F2AB
:101A7000010100234FF00C0C4FF4964280E80E0059
:101A8000C0E90333C0E905C3C361FFF719FD0028AE
:101A900008BF80BDBDE88040FEF75EBCFEE70000E9
:101AA000FEE700007047000070470000FEF766BECA
:101AB0007047000040F27800C2F20000FFF7FEBB62
:101AC000FEE70000AEB0FEF767FE13AC201D242138
:101AD000FEF7BCFB022013900120179010201890F5
:101AE000002520461A95FFF709F828B1EFF310807A
:101AF00072B600BFFEE700BF0F20CDE9230523A883
:101B00000021CDE925552795FEF7EEFE20B1EFF334
:101B1000108072B6FEE700BFFFF7EEFEFFF764FF2E
:101B2000FFF79EFF40F2000040F27801C2F2000091
:101B3000C2F2000140880A6840F2C004D062504AF4
:101B4000C8604FA0071D23928ECF40690DF1900C05
:101B5000C2F200048CE88E00289023A920461522AA
:101B60004FF0FF33FFF7F4FD57A041680DF18B05EF
:101B70000D91816829AE0C91C16800270B91016914
:101B80000A914169099181690891C1690791016AC6
:101B90000691416A0591816A0491C16A0391016BC2
:101BA0000291416B806B019100903DA04168D0E9AA
:101BB00006B912918168D0E908A81191C168109105
:101BC00001690F9141690E9104E000BF122F9CBF83
:101BD000F05501372046294601224FF0FF33FFF729
:101BE0001DFD9DF88B000D2801D00A28EED10020A4
:101BF000F055304628A10722FEF7FCFAA0B128488C
:101C000013A913901298252214901198CDE91A9ACD
:101C100015901098CDF8708016900F9817900E9828
:101C2000CDE9180B20E000BF274813A913900D98A9
:101C3000392214900C9815900B9816900A981790CA
:101C40000998189003981E9004981D9005981C9070
:101C500006981B9007981A90089819900098219060
:101C60000198209002981F9020464FF0FF33FFF715
:101C70006FFD00272D97CDE92B77CDE92977A9E7CF
:101C80004150504C49434154494F4E2053544152C6
:101C9000544544210D000000313233343536000004
:101CA0004150504C49434154494F4E204C4F4720DE
:101CB0002D2D2D3E20494E56414C4944204E464341
:101CC000205441470D0000004150504C49434154BD
:101CD000494F4E204C4F47202D2D2D3E204155542D
:101CE0004F4D4154494320444F4F5253204F50458C
:101CF0004E4544205355434345535346554C4C5948
:101D00000D000000010200000000000000000102C0
:101D1000030406070809000000000102030402038F
:101D20000405060708090A0B0C0D0E0F101000031E
:101D30004002C0008001C00080010003400200009A
:101D4000601D00080000002018000000500100087D
:101D5000781D000818000020F80600007001000837
:101D600043003100010000000100000010000000ED
:081D70000024F4000000000053
:04000005080000ED02
:00000001FF
